:10063C005761726E696E67206E756D3A00416D6D13
:10064C006F6E69613A0025004154443138383935B0
:09065C003730323537353B0A0016
:10000E000216000002180000021A00000208000288
:0B001E00050D0000000000020A0000B9
:03000300DFFE22FB
:10070400AE07AF061EEF600C7FF51200037FF512F3
:05071400000380EE224D
:10074C007580FFC2B5D2B6C2B700D2B7E5803322EE
:1007190012074C40FBC2B5C2B6D2B78F8000C2B730
:0107290022AD
:10072A0012074C40FBD2B5C2B6D2B78F8000C2B70F
:01073A00229C
:0A076A007F011207197F0502070442
:10068D00AE07ED7005EE24808003EE24C0FF120747
:10069D001912030CFF600C12072A740129F9E43AB0
:0406AD00FA80EE22BF
:1006EC00AE07AC03ED7005EE24808003EE24C0FF52
:0806FC00120719AF0402072ADE
:100665007F381207197F641207047F0C1207197F60
:10067500C81207047F061207197FC81207047F01F5
:080685001207197F9602070419
:10073B00759D07E4F5BD75BCF00000000075BCE8C5
:01074B00228B
:03000B0002075C8D
:0E075C00C0E0758CB1758AE012073BD0E03228
:03002B000203BE0F
:1003BE00C0E0C0F0C083C082C0D075D000C000C005
:1003CE0001C002C003C004C005C006C007AFBD75A2
:1003DE0016008F17AC16AD17EC120252E4FBFA7929
:1003EE00807843120137E4FBFA79A0784012002E90
:1003FE008F1F8E1E8D1D8C1C8F158E148D138C12BF
:10040E00AF15AE14AD13AC1212028B7C007D0A1226
:10041E000325ED2430F50D750E2EE4FFFE7D207CB8
:10042E0041AB15AA14A913A81212002E12028B7C2E
:10043E00007D0A120325ED2430F50FE4FFFE7DC882
:10044E007C42AB15AA14A913A81212002E12028B0D
:10045E007C007D0A120325ED2430F5107511007B0A
:10046E00007A00790DE4FD7F0812068DAE08AF0903
:10047E007C007D0A120325ED2430F50CFB7D017FF7
:10048E000C1206EC53BCEF050BE50B7002050A646B
:10049E00FC450A7004F50AF50BD007D006D005D03E
:1004AE0004D003D002D001D000D0D0D082D083D0DF
:0404BE00F0D0E03268
:1005C80020A03D7F0A12070420A0350521E52170EF
:1005D80002052064014520700A7F0F1207197FCC9D
:1005E800120719E521640245207012F520F521ABA8
:1005F800097D017F0C1206EC7F0C12071930A0FD53
:1006080020A230E5214520602A7F0A12070420A293
:10061800220509E50970020508640945087004F512
:1006280008F5097FCC120719E5092430FF12072ABB
:0406380030A2FD22CD
:1006B100758920758DFD758BFD7598505387EF7584
:1006C1008CB1758AE0D2AFD2A9D2ADD28ED28C22B2
:1006D100E4FFC2A6F5A8EF90065493FE600AF599CF
:0B06E1003099FDC2990F80EE0206B1B7
:10054E0012066512076A7BFF7A06793C7D02E4FF8C
:10055E0012068D7A067949E4FDFF12068D7A067928
:10056E00527F0C12068D7FFF120704758920758D40
:10057E00FD758BFD7598505387EF758CB1758AE0BC
:10058E00D2AFD2A9D2ADD28CD28E1205C8AC08ADE4
:10059E0009EC120252AB1FAA1EA91DA81C1201D4EF
:1005AE004012E5214520700C1206D1C2A57FC8125B
:0A05BE00070480D6D2A6D2A580D093
:10002E00EC4D6011E8497017ED33EC3304600DE4CC
:10003E00FCFFFEFD22E933E8330470F80202F712EA
:10004E0002C258046009E4CC2481500628500902EB
:10005E0003012840030202FEC0E0EB4A7044B9805F
:10006E0006D0E0FB0202EDEF4E701CBD8008EBFFE8
:10007E00EAFEE9FD80EBE98DF0A4FEE5F002011742
:10008E00E9CDF9EAFEEBFFEF89F0A4FCE5F0CE89AD
:10009E00F0A42EFFE435F0CD89F0A42DFEE435F06A
:1000AE008067EF4E7005BD80D780C3EF8BF0A4AC98
:1000BE00F0EE8BF0A42CFCE435F0F8EF8AF0A42CD3
:1000CE00E5F038FCE433CB8DF0A42CFCE5F03BF8E6
:1000DE00EE8AF0A42CFCE5F038F8E433CF89F0A4D6
:1000EE002CFCE5F038CF3400CE89F0A42FFFE5F0DC
:1000FE003EFEE433C98DF0A42EFEE5F039CD8AF034
:10010E00A42FFFE5F03EFEE43DFD33D0E0FB5007AB
:10011E000BBB000F020301EC2CFCEF33FFEE33FEA2
:06012E00ED33FD0202D9D1
:10013400020301EC5D046005E8590470030202F750
:100144001202C2580460F6EC4860F2EC7004FDFE42
:10015400FF22C860DB2481C85009C398600250069E
:100164000202FE9850CAF582E9294B4A7005AB8217
:100174000202ED75F0007C1A7880C3EF9BEE9AEDD5
:1001840099400DC3EF9BFFEE9AFEED99FDE842F016
:10019400DC23ACF0D0E0FFD0E0FED0E0FDAB822069
:1001A400E7101BEB60BAEC2CFCEF33FFEE33FEEDF3
:1001B40033FD0202D9E803F830E705C0F075F0001A
:1001C400EF2FFFEE33FEED33FD40B830E7C280AAD7
:1001D40074F8CC6480CCC86480C8F58204604FC3D2
:1001E400EB9FF5F0EA9E42F0E99D42F0E89C45F071
:1001F400603C501DE5825FFFE582D313CB5BCBF4FB
:100204002B5582FB50280ABA002409B90020088023
:100214001DE5825BFBE582D313CF5FCFF4C3132FBD
:100224005582FF50090EBE00050DBD00010CC3EB45
:100234009FF5F0EA9E42F0E99D42F0E89C45F060AB
:0902440007CC4820E701B3EC22CD
:10024D0075F020800E75F010800575F0087D007E2C
:10025D00007F003392D530D50312035BEC33401091
:10026D00EF33FFEE33FEED33FDEC33FCD5F0ED2235
:0E027D00E5F0247EA2D513CC92E7CDCEFF2271
:10028B00EDD2E7CD33EC3392D524814006E4FFFE6B
:10029B00FDFC22FCE4CFCECDCC24E0501174FF80CA
:1002AB00EDC3CC13CCCD13CDCE13CECF13CF047067
:0702BB00F030D5DE02035B09
:1002C200E9D2E7C933E833F892D5EDD2E7CD33EC82
:0702D20033FC5002B2D522FB
:1002D900EC30E7100FBF000C0EBE00080DBD000486
:1002E9000BEB6014A2D5EB13FCED92E7FD2274FF32
:1002F900FCFDFEFF22E480F8A2D574FF13FC7D808B
:03030900E480EF9E
:030000000204C235
:0C04C200787FE4F6D8FD75812102050961
:10030C00BB010689828A83E0225002E722BBFE02EF
:09031C00E32289828A83E4932222
:10032500C2D5EC30E709B2D5E4C39DFDE49CFCEEF3
:1003350030E715B2D5E4C39FFFE49EFE120369C3FF
:10034500E49DFDE49CFC800312036930D507C3E4FA
:060355009FFFE49EFE2262
:0E035B00C3E49FFFE49EFEE49DFDE49CFC22B3
:1004CE0002054EE493A3F8E493A34003F68001F2F1
:1004DE0008DFF48029E493A3F85407240CC8C3332F
:1004EE00C4540F4420C8834004F456800146F6DFFE
:1004FE00E4800B010204081020408090000EE47E80
:10050E00019360BCA3FF543F30E509541FFEE493F2
:10051E00A360010ECF54C025E060A840B8E493A3B9
:10052E00FAE493A3F8E493A3C8C582C8CAC583CAE4
:10053E00F0A3C8C582C8CAC583CADFE9DEE780BE9C
:0100290000D6
:10036900BC000BBE0029EF8DF084FFADF022E4CC78
:10037900F875F008EF2FFFEE33FEEC33FCEE9DEC41
:10038900984005FCEE9DFE0FD5F0E9E4CEFD22ED87
:10039900F8F5F0EE8420D21CFEADF075F008EF2FD1
:1003A900FFED33FD4007985006D5F0F222C398FDC2
:0503B9000FD5F0EA225F
:00000001FF
